:100000000C9462000C948A000C948A000C948A0070
:100010000C948A000C948A000C948A000C948A0038
:100020000C948A000C948A000C94F50D0C94B60E76
:100030000C948A000C942F0F0C948D0E0C948A0053
:100040000C948C0C0C948A000C945A0C0C94340C68
:100050000C948A000C948A000C948A000C948A00F8
:100060000C94D60C0C948A00000000002400270099
:100070002A0000000000250028002B0000000000DE
:1000800023002600290004040404040404040202DA
:100090000202020203030303030301020408102007
:1000A0004080010204081020010204081020000012
:1000B0000008000201000003040700000000000027
:1000C0000000550F11241FBECFEFD8E0DEBFCDBF1B
:1000D00027E0AEEAB4E001C01D92AA30B207E1F712
:1000E00014E0A0E0B1E0ECEFF4E402C005900D9262
:1000F000AE3AB107D9F710E0C2E6D0E004C02197CC
:10010000FE010E946120C136D107C9F70E94A40FE9
:100110000C947C220C94000008950895AF92BF9235
:10012000CF92DF92EF92FF920F931F93CF93DF93C3
:100130006C017B018B01040F151FEB015E01AE18F2
:10014000BF08C017D10759F06991D601ED91FC9114
:100150000190F081E02DC6010995892B79F7C50141
:10016000DF91CF911F910F91FF90EF90DF90CF9093
:10017000BF90AF900895FC01538D448D252F30E042
:10018000842F90E0821B930B541710F0CF960895A4
:1001900001970895FC01918D828D981761F0A28DD1
:1001A000AE0FBF2FB11D5D968C91928D9F5F9F7397
:1001B000928F90E008958FEF9FEF0895FC01918D4D
:1001C000828D981731F0828DE80FF11D858D90E0BA
:1001D00008958FEF9FEF0895FC01918D228D892F57
:1001E00090E0805C9F4F821B91098F73992708953F
:1001F00081E596E00E94EC0021E0892B09F420E0E3
:10020000822F089580E090E0892B29F00E94F80069
:1002100081110C9400000895FC01A48DA80FB92F42
:10022000B11DA35ABF4F2C91848D90E001968F731E
:100230009927848FA689B7892C93A089B1898C913D
:10024000837080648C93938D848D981306C002888C
:10025000F389E02D80818F7D80830895EF92FF9256
:100260000F931F93CF93DF93EC0181E0888F9B8DD9
:100270008C8D98131AC0E889F989808185FF15C093
:100280009FB7F894EE89FF896083E889F9898081B6
:100290008370806480839FBF81E090E0DF91CF9185
:1002A0001F910F91FF90EF900895F62E0B8D10E0A7
:1002B0000F5F1F4F0F731127E02E8C8D8E110CC016
:1002C0000FB607FCFACFE889F989808185FFF5CF61
:1002D000CE010E940C01F1CFEB8DEC0FFD2FF11D33
:1002E000E35AFF4FF0829FB7F8940B8FEA89FB899E
:1002F00080818062CFCFCF93DF93EC01888D8823FC
:10030000B9F0AA89BB89E889F9898C9185FD03C078
:10031000808186FD0DC00FB607FCF7CF8C9185FF5D
:10032000F2CF808185FFEDCFCE010E940C01E9CF95
:10033000DF91CF910895833081F028F4813099F0D6
:100340008230A9F008958730A9F08830C9F0843050
:10035000B1F4809180008F7D03C0809180008F7701
:1003600080938000089584B58F7784BD089584B507
:100370008F7DFBCF8091B0008F778093B000089580
:100380008091B0008F7DF9CF1F93CF93DF93282FFB
:1003900030E0F901E255FF4F8491F901E656FF4F35
:1003A000D491F901EA57FF4FC491CC23A9F0162F3D
:1003B00081110E949B01EC2FF0E0EE0FFF1FEE5821
:1003C000FF4FA591B4918FB7F894EC91111108C02B
:1003D000D095DE23DC938FBFDF91CF911F910895DD
:1003E000DE2BF8CFCF93DF9390E0FC01E656FF4F72
:1003F00024918A579F4FFC0184918823D1F090E08B
:10040000880F991FFC01E859FF4FA591B491FC0199
:10041000EE58FF4FC591D49161110EC09FB7F8946B
:100420008C91E22FE0958E238C932881E223E88340
:100430009FBFDF91CF9108958FB7F894EC91E22B95
:10044000EC938FBFF6CF3FB7F89480911C05909145
:100450001D05A0911E05B0911F0526B5A89B05C0DE
:100460002F3F19F00196A11DB11D3FBFBA2FA92F33
:10047000982F8827BC01CD01620F711D811D911D30
:1004800042E0660F771F881F991F4A95D1F708959C
:100490008F929F92AF92BF92CF92DF92EF92FF9294
:1004A0004B015C010E9423026B017C010E9423022C
:1004B0006C197D098E099F09683E7340810591057D
:1004C000A8F321E0821A9108A108B10888EEC80EAD
:1004D00083E0D81EE11CF11C81149104A104B10435
:1004E00029F7FF90EF90DF90CF90BF90AF909F9053
:1004F0008F900895089508952091F404260F3327CE
:10050000331F21323105ECF420914706FC0190E0C5
:1005100080E0243069F082E00895A091F4042191F4
:10052000AC014C525B4FA40FB52FB11D2C9301961B
:10053000861798F38091F404680F6093F40480E0C8
:10054000089581E008951092470681E08093260681
:100550001092210661E082E10E94C40161E083E122
:100560000E94C401E9EBF0E080818E7F808380816E
:100570008D7F808388E48093B80085E48093BC00FD
:100580000895CF93DF9391E09093D3048823B9F03B
:10059000C091B800D091BA008091BC008A7B809352
:1005A000BC0060E082E10E94C40160E083E10E943F
:1005B000C4010E94A302D093BA00C093B800DF9197
:1005C000CF910895CF92DF92EF92FF920F931F93F6
:1005D000CF93DF93D82FC62F613208F098C00E94C6
:1005E00023026B017C018091470681116BC081E081
:1005F00080934706809326069FEF909325061092DE
:1006000024069C0F90932306809322068091220655
:10061000DD0FD82BD093220680912106813009F07E
:1006200078C0109221060E9423026B017C01809108
:1006300022068093BB008091490690914A06A091C2
:100640004B06B0914C06892B8A2B8B2BA1F00E9474
:1006500023020091490610914A0620914B063091E1
:100660004C066C197D098E099F0906171707280784
:10067000390708F448C08091BC0083FDD8CF85ECD1
:100680008093BC000E9423026B017C01809147068D
:10069000813009F440C0809124068C1710F4C09179
:1006A0002406E1E0F6E0A7E2B6E080E08C1355C056
:1006B0008C2FDF91CF911F910F91FF90EF90DF90E2
:1006C000CF9008958091490690914A06A0914B06DB
:1006D000B0914C06892B8A2B8B2B09F484CF0E9476
:1006E00023020091490610914A0620914B06309151
:1006F0004C066C197D098E099F09061717072807F4
:10070000390708F070CF809148060E94C102C0E00E
:10071000CFCF85EEB5CF8091490690914A06A09142
:100720004B06B0914C06892B8A2B8B2B09F4AECF4C
:100730000E9423020091490610914A0620914B061F
:1007400030914C066C197D098E099F090617170711
:100750002807390708F09ACFD6CF91919D938F5FE4
:10076000A5CF0895E09100068091FF05E81730F4C9
:10077000F0E0E95DF94F808190E008958FEF9FEF01
:100780000895909100068091FF052FEF3FEF981795
:1007900048F4E92FF0E0E95DF94F208130E09F5FF8
:1007A00090930006C90108958091FF05909100067D
:1007B000891B990B0895CF92DF92EF92FF920F93CE
:1007C0001F93CF93DF937C01CB018A0120915006C8
:1007D000222389F0EB016B01C40ED51ECC15DD057B
:1007E00069F06991D701ED91FC910190F081E02DC4
:1007F000C7010995F3CF642F0E947C02C801DF91E5
:10080000CF911F910F91FF90EF90DF90CF900895BF
:10081000CF93DF931F92CDB7DEB769832091500647
:100820002223F9F020914D06203258F021E030E0EB
:10083000FC013383228390E080E00F90DF91CF9121
:10084000089580914E06E82FF0E0ED54FB4F99811A
:1008500090838F5F80934E0680934D0681E090E0F9
:10086000ECCF61E0CE0101960E947C02F7CFCF92DF
:10087000DF92EF92FF920F931F93CF93DF93D0916C
:100880004D0681E0D13208F09CC0C0914F060E9415
:1008900023026B017C018091470681116CC082E0CC
:1008A0008093470681E0809326068FEF809325068C
:1008B00010922406D0932306A3EBB4E0E1E0F6E027
:1008C00080E0D8138DC01092220680912206CC0FB2
:1008D000C82BC093220680912106813009F084C084
:1008E000109221060E9423026B017C018091220656
:1008F0008093BB008091490690914A06A0914B06D7
:10090000B0914C06892B8A2B8B2BA1F00E942302DD
:100910000091490610914A0620914B0630914C06F1
:100920006C197D098E099F090617170728073907D3
:1009300008F442C08091BC0083FDD8CF85EC809341
:10094000BC000E9423026B017C018091470682302B
:1009500009F44CC0809125068F3F09F469C080914D
:100960002506803209F466C080912506803309F49B
:1009700063C084E026C08091490690914A06A09108
:100980004B06B0914C06892B8A2B8B2B09F483CF15
:100990000E9423020091490610914A0620914B06BD
:1009A00030914C066C197D098E099F0906171707AF
:1009B0002807390708F06FCF809148060E94C102CE
:1009C00085E010924E0610924D0610925006DF916F
:1009D000CF911F910F91FF90EF90DF90CF900895EE
:1009E0009D9191938F5F6DCF85EEA9CF8091490640
:1009F00090914A06A0914B06B0914C06892B8A2B08
:100A00008B2B09F4A2CF0E9423020091490610917A
:100A10004A0620914B0630914C066C197D098E09CF
:100A20009F09061717072807390708F08ECFC4CF8C
:100A300080E0C7CF82E0C5CF83E0C3CF1F93CF93C1
:100A4000DF93162FCAEFD6E0AC81BD819B8121E0F8
:100A50002093500690934F0610924E0610924D062A
:100A6000ED91FC9111970190F081E02D682FCD015F
:100A700009958C819D81DC01ED91FC910190F081C3
:100A8000E02D612F09958C819D810E94370481E0C2
:100A9000DF91CF911F910895EAEFF6E08287938767
:100AA000682F8DE390E00E941E056EE170E080E00B
:100AB00090E00C94480290E080E00895FF920F933C
:100AC0001F93CF93DF93F0905901CAEFD6E00A85C8
:100AD0001B8590E080E00E944C0569E170E080E0B9
:100AE00090E00E9448026F2D81E490E00E941E0574
:100AF0006AE070E080E090E00E944802C8010E9435
:100B00004C0564E170E080E090E00E9448021091A2
:100B10008B050A84DB85C02D90E080E00E944C05A7
:100B200069E170E080E090E00E944802612F82E479
:100B300090E00E941E056AE070E080E090E00E9474
:100B40004802CE010E944C0564E170E080E090E034
:100B5000DF91CF911F910F91FF900C944802DC011F
:100B600014966D917C9115974091F70550E04617CA
:100B700057070CF130E020E0461B570B26173707CC
:100B8000C4F4FA01E20FF31FEE56FA4F80812617E4
:100B9000370768F4ED91FC911197309741F0E20F1F
:100BA000F31F9081891307C02F5F3F4FE7CF90E07D
:100BB000F9CF81E0089580E00895FC0101900020C4
:100BC000E9F73197AF01481B590BBC0181E596E06D
:100BD0000C948E0084ED91E00C94DD058F929F9231
:100BE000AF92BF920F931F93CF93DF93CDB7DEB732
:100BF000A1970FB6F894DEBF0FBECDBF19A2423049
:100C000008F44AE08E010F5D1F4F842E912CB12C09
:100C1000A12CA50194010E942020E62FB901CA0150
:100C2000EA30F4F4E05DD801EE938D01232B242B00
:100C3000252B79F790E080E0109719F0CD010E9404
:100C4000DD05A1960FB6F894DEBF0FBECDBFDF91D4
:100C5000CF911F910F91BF90AF909F908F9008956B
:100C6000E95CE1CF0C94DD05CF93DF930E94DD05B5
:100C7000EC010E94EA058C0F9D1FDF91CF91089532
:100C8000682F70E090E080E04AE00C94EE05CF938E
:100C9000DF930E944006EC010E94EA058C0F9D1F25
:100CA000DF91CF910895CF92DF92EF92FF92CF9391
:100CB000DF9397FF1BC06B017C016DE281E596E03D
:100CC0000E942E01EC0166277727CB016C197D0964
:100CD0008E099F094AE00E94EE058C0F9D1FDF914F
:100CE000CF91FF90EF90DF90CF9008954AE0DF9191
:100CF000CF91FF90EF90DF90CF900C94EE05BC0168
:100D0000990F880B990B0C945306CF93DF930E9495
:100D10007F06EC010E94EA058C0F9D1FDF91CF91A9
:100D200008954F925F926F927F928F929F92AF92AF
:100D3000BF92CF92DF92EF92FF920F931F93CF93C8
:100D40006B017C01742EAC019B010E94072088235B
:100D500099F087ED91E0CF911F910F91FF90EF9067
:100D6000DF90CF90BF90AF909F908F907F906F90CB
:100D70005F904F900C94DD0546015701E894B7F859
:100D80002FEF3FEF4FE75FE7C501B4010E94072057
:100D900081110DC02FEF3FEF4FE75FE7C501B401B1
:100DA0000E94241D18161CF48BED91E0D4CF2FEF78
:100DB0003FEF4FE75FE4C701B6010E94022018161B
:100DC0001CF48FED91E0C7CF2FEF3FEF4FE75FECC3
:100DD000C701B6010E94241D87FDF3CF20E030E05B
:100DE000A901C701B6010E94241D10E000E087FFA1
:100DF0000AC06DE281E596E00E942E018C01F7FAAF
:100E0000F094F7F8F094C0E060E070E080E09FE3D9
:100E10007C1641F020E030E040E251E40E94021FE5
:100E2000CF5FF6CFA70196010E94961E2B013C01D1
:100E30000E947B1F4B015C014AE00E94EE057C0191
:100E4000E00EF11ECC23C1F1C501B4010E94291DA1
:100E50009B01AC01C301B2010E94951E4B015C01D4
:100E60006EE281E596E00E942E01E80EF91EC15067
:100E700018F120E030E040E251E4C501B4010E94E5
:100E80008A1D2B013C010E947B1F4B01B12CA12C20
:100E90004AE0C501B4010E94EE05E80EF91EC50145
:100EA000B4010E94291D9B01AC01C301B2010E9443
:100EB000951E4B015C01DBCFC701CF911F910F91B4
:100EC000FF90EF90DF90CF90BF90AF909F908F906A
:100ED0007F906F905F904F90089542E00C94910640
:100EE000CF93DF9342E00E949106EC010E94EA0555
:100EF0008C0F9D1FDF91CF910895CF93DF93CAEFA1
:100F0000D6E0AC81BD819B8121E020935006909377
:100F10004F0610924E0610924D06ED91FC911197DE
:100F20000190F081E02D682FCD0109958C819D8184
:100F30000E94370461E08B810E94E2021092000659
:100F40008093FF058C819D81DC01ED91FC910284F1
:100F5000F385E02D0995DF91CF9108958F929F92AF
:100F6000AF92BF92CF92DF92EF92FF920F931F93B7
:100F7000CF93DF93CDB7DEB762970FB6F894DEBF9D
:100F80000FBECDBF6C018B01FB01349680E2DF0107
:100F90001D928A95E9F784E290E0A0E0B0E0FB01C1
:100FA00080839183A283B383F60186819781A08594
:100FB000B185FB0184839583A683B78383E090E0AA
:100FC000A0E0B0E080879187A287B3872FB7F8941D
:100FD0008091180590911905A0911A05B0911B05F3
:100FE0002FBF808B918BA28BB38B8CE0FE0131964F
:100FF000DF011D928A95E9F77E01BDE0EB0EF11C41
:1010000086E0F70111928A95E9F7D60114968D9141
:101010009C91159713962C9131E0309350062093B4
:101020004F0610924E0610924D06DC01ED91FC9198
:101030000190F081E02D6AE10995F60184819581A6
:101040000E94370466E0D60113968C910E94E2025A
:10105000109200068093FF055E01B3E1AB0EB11C58
:10106000F60184819581DC01ED91FC910284F38588
:10107000E02D0995F70181937F01EA15FB0581F7C2
:101080006D857E85072E000C880B990B0E942B1D09
:1010900020E030E040E85DE30E948A1D4B015C01E6
:1010A0006F857889072E000C880B990B0E942B1DE9
:1010B00020E030E040E85DE30E948A1D6B017C0186
:1010C00069897A89072E000C880B990B0E942B1DC9
:1010D00020E030E040E85DE30E948A1DD80154968C
:1010E0008D929D92AD92BC925797F801C08ED18E91
:1010F000E28EF38E5C966D937D938D939C935F97B8
:1011000081E062960FB6F894DEBF0FBECDBFDF91CF
:10111000CF911F910F91FF90EF90DF90CF90BF90F4
:10112000AF909F908F9008950C94501ECF93DF93B3
:1011300020E030E048EC52E460918A0170918B012C
:1011400080918C0190918D010E948A1D0E947B1FCD
:1011500081E090E00E94940820E030E048EC52E406
:101160006091860170918701809188019091890139
:101170000E948A1D0E947B1F82E090E00E949408DA
:1011800060918C0585E090E00E94940860916D016B
:1011900087E090E00E94940860916E0188E090E002
:1011A0000E94940820E030E040E251E460917A012E
:1011B00070917B0180917C0190917D010E948A1D3C
:1011C0000E947B1F89E090E00E94940820E030E0BC
:1011D00040E251E460917A0170917B0180917C0141
:1011E00090917D010E948A1D0E94741F672F8AE0E2
:1011F00090E00E94940820E030E040E251E46091E9
:1012000076017091770180917801909179010E9427
:101210008A1D0E947B1F8BE090E00E94940820E0D2
:1012200030E040E251E46091760170917701809165
:101230007801909179010E948A1D0E94741F672F86
:101240008CE090E00E94940820E030E040E251E41D
:101250006091720170917301809174019091750198
:101260000E948A1D0E947B1F8DE090E00E949408DE
:1012700020E030E040E251E460917201709173012E
:1012800080917401909175010E948A1D0E94741FC3
:10129000672F8EE090E00E9494086091670180E1E2
:1012A00090E00E9494086091680181E190E00E94C2
:1012B00094086091610182E190E00E94940860913D
:1012C000620183E190E00E9494086091690184E1E9
:1012D00090E00E94940860916A0185E190E00E948C
:1012E000940860916B0186E190E00E9494086091FF
:1012F0006C0187E190E00E9494086091630188E1AD
:1013000090E00E9494086091640189E190E00E945D
:101310009408609165018AE190E00E9494086091D0
:1013200066018BE190E00E94940860915D018CE180
:1013300090E00E94940860915E018DE190E00E942F
:10134000940860915F018EE190E00E9494086091A2
:1013500060018FE190E00E949408CAE5D1E06881C5
:1013600080E290E00E949408698181E290E00E940E
:1013700094086A8182E290E00E9494086091590189
:1013800083E290E00E94940860918B0584E290E0F3
:101390000E9494086FE090E080E00E94940883EE41
:1013A00091E0DF91CF910C9434060C94481EFC011F
:1013B00080819181009711F00C94172108950C946D
:1013C0001721EF92FF920F931F93CF93DF93EC01BE
:1013D0007B01198218821B821A821D821C82FB01EA
:1013E00001900020E9F731978F01061B170BB80118
:1013F0006F5F7F4F90E080E00E94A0210097B9F0DE
:10140000998388831B830A832C813D81232B11F4CC
:10141000FC0110821D830C83B70188819981DF91C3
:10142000CF911F910F91FF90EF900C9466228881CD
:101430009981009711F00E941721198218821D824C
:101440001C821B821A82DF91CF911F910F91FF9016
:10145000EF9008950F931F93CF93DF938C01EB01CF
:1014600088E2FB0111928A95E9F74BE050E061E0D8
:1014700072E0CE010E946D221B8681E090E0A0E028
:10148000B0E08C879D87AE87BF87F8018681978102
:10149000A085B185888B998BAA8BBB8B83E090E06C
:1014A000A0E0B0E08C8B9D8BAE8BBF8B1CA21DA2ED
:1014B0001EA21FA2188E198E1A8E1B8E1C8E1D8EB8
:1014C0001E8E1F8E8AE097EDA3E2BCE388A399A34A
:1014D000AAA3BBA3DF91CF911F910F910895EF9223
:1014E000FF920F931F93CF93DF93CDB7DEB76A9729
:1014F0000FB6F894DEBF0FBECDBF1092000610925B
:10150000FF0510924E0610924D060E94A3028CE831
:1015100090E090932305809322058DE890E09093CE
:1015200021058093200590E080E00E947D07803AAD
:1015300069F068EE73E080E090E00E94480290E07D
:1015400080E00E947D07803A09F03BC190E080E096
:101550000E944C0560E28FE390E00E941E056EE160
:1015600070E080E090E00E94480290E080E00E94FD
:101570007D07803A29F06AE070E080E090E0F3CFE8
:1015800062E370E080E090E00E94480260E08EE359
:1015900090E00E941E056AE070E080E090E00E940A
:1015A000480260E087E090E00E941E0560E08FE363
:1015B00090E00E941E056AE070E080E090E00E94EA
:1015C00048028CE090E00E944C0564E170E080E00D
:1015D00090E00E944802009104071091050790E0F6
:1015E00080E00E944C0569E170E080E090E00E949C
:1015F000480260E087E090E00E941E0560E88FE30B
:1016000090E00E941E056AE070E080E090E00E9499
:101610004802C8010E944C0564E170E080E090E05F
:101620000E9448028CE090E00E944C0568E275E060
:101630008AEF96E00E942A0A0E945E0584E690E006
:101640000E94481E8F8B85E690E00E94481E888F7E
:1016500086E690E00E94481E898F87E690E00E940F
:10166000481E8A8F409138055091390560913A059E
:1016700070913B058F89988DA98DBA8D48175907B0
:101680006A077B0709F0A8C0CE0101967C0108E635
:1016900010E0C8010E94481EF70181937F010F5F8F
:1016A0001F4F0E371105A9F7009104071091050788
:1016B00090E080E00E944C0569E170E080E090E0FD
:1016C0000E9448026981FA8085E590E00E941E052B
:1016D0006F2D86E590E00E941E056B81FC8087E5FA
:1016E00090E00E941E056F2D88E590E00E941E0587
:1016F0006D81FE8089E590E00E941E056F2D8AE5D0
:1017000090E00E941E056F81F8848BE590E00E94B6
:101710001E056F2D8CE590E00E941E056985FA84F8
:101720008DE590E00E941E056F2D8EE590E00E94F1
:101730001E056B85FC848FE590E00E941E056F2DD1
:1017400080E690E00E941E056D85FE8481E690E0B3
:101750000E941E056F2D82E690E00E941E056F8597
:10176000F88883E690E00E941E056F2D84E690E0E5
:101770000E941E056989FA8885E690E00E941E0590
:101780006F2D86E690E00E941E056B89FC8887E637
:1017900090E00E941E056F2D88E690E00E941E05D5
:1017A0006D89FE8889E690E00E941E056F2D8AE60D
:1017B00090E00E941E05C8010E944C058BE492E057
:1017C0000DC088E092E00E94340668EE73E080E08D
:1017D00090E00E944802F5CF80E392E06A960FB64F
:1017E000F894DEBF0FBECDBFDF91CF911F910F9157
:1017F000FF90EF900C94340685ED8093BC008091AF
:10180000490690914A06A0914B06B0914C06079666
:10181000A11DB11D23E0B695A795979587952A95AB
:10182000D1F72091BC0024FD03C010924706089513
:101830004091490650914A0660914B0670914C06C2
:10184000452B462B472B69F30097A105B10541F0C5
:1018500025E32A95F1F700000197A109B109E1CF2D
:10186000809148060C94C1021F920F920FB60F92FE
:1018700011242F933F934F935F936F937F938F9395
:101880009F93AF93BF93EF93FF9381E596E00E9400
:101890000C01FF91EF91BF91AF919F918F917F913B
:1018A0006F915F914F913F912F910F900FBE0F90CD
:1018B0001F9018951F920F920FB60F9211242F931D
:1018C0008F939F93EF93FF93E0916106F0916206EF
:1018D0008081E0916706F091680682FD1BC09081CF
:1018E00080916A068F5F8F7320916B06821741F09B
:1018F000E0916A06F0E0EF5AF94F958F80936A06FF
:10190000FF91EF919F918F912F910F900FBE0F90AC
:101910001F9018958081F4CF1F920F920FB60F92EF
:1019200011242F933F938F939F93AF93BF938091F5
:10193000180590911905A0911A05B0911B053091D9
:10194000170523E0230F2D3758F50196A11DB11D72
:10195000209317058093180590931905A0931A05F5
:10196000B0931B0580911C0590911D05A0911E054B
:10197000B0911F050196A11DB11D80931C05909388
:101980001D05A0931E05B0931F05BF91AF919F91B8
:101990008F913F912F910F900FBE0F901F90189530
:1019A00026E8230F0296A11DB11DD2CF1F920F92E0
:1019B0000FB60F9211242F933F934F935F936F9322
:1019C0007F938F939F93AF93BF93EF93FF938091F8
:1019D000B900887F803609F44AC0F0F5883209F4EE
:1019E000A7C018F5803109F49BC0B8F4882309F426
:1019F000F9C0883009F494C0FF91EF91BF91AF9185
:101A00009F918F917F916F915F914F913F912F9116
:101A10000F900FBE0F901F901895883109F488C061
:101A2000803251F78093250614C0803409F49DC09C
:101A300040F48033B9F38833F9F68093250685ECBA
:101A4000B0C0803509F485C0883509F496C0883463
:101A500099F60E94FC0BD0CF883909F48CC038F578
:101A6000883729F050F4883611F0803729F683E062
:101A7000809347061092160557C0883809F47BC03A
:101A8000803919F0803809F0B7CF8091160580327F
:101A900008F071C0E091160581E08E0F8093160565
:101AA0008091BB00F0E0EA50FB4F80833DC0803B5B
:101AB00039F0E0F4803A09F479C0883A09F09CCF13
:101AC00084E0809347061092F5041092F404E091AC
:101AD0002205F091230509958091F40481110FC02E
:101AE00081E08093F4041092D40409C0803C09F48E
:101AF000A6CF883C09F4A3CF883B09F07DCFE091C5
:101B0000F50481E08E0F8093F504F0E0EC52FB4F7A
:101B100080818093BB009091F5048091F40429C0EA
:101B2000809122068093BB0085EC8093BC0064CF3B
:101B30009091240680912306981758F5E091240689
:101B400081E08E0F80932406F0E0EF5FF94F8081F3
:101B5000E9CFE091240681E08E0F809324068091E6
:101B6000BB00F0E0EF5FF94F8083909124068091F5
:101B700023069817C8F285E8D8CFE091240681E0C3
:101B80008E0F809324068091BB00F0E0EF5FF94F49
:101B900080838091260681115CCF81E080932106AD
:101BA00084EA8093BC001092470626CF85EC809390
:101BB000BC001092470680911605803230F4E09107
:101BC0001605F0E0EA50FB4F10826091160570E0B8
:101BD000E0912005F091210586EF94E0099510929F
:101BE00016050ACF1092250634CF1F920F920FB61A
:101BF0000F9211242F933F934F935F938F939F9353
:101C0000AF93BF93EF93FF9380916F008F7D80938D
:101C10006F00809181008091810090E489278093FA
:101C2000810080918600909187002091AF043091CF
:101C3000B004AC018217930750F545535045421B41
:101C4000530B5093B2044093B1049093B00480932B
:101C5000AF042091B1043091B2042D3755E135071E
:101C6000E8F01092AE0480916F00806280936F0064
:101C7000FF91EF91BF91AF919F918F915F914F91A4
:101C80003F912F910F900FBE0F901F901895421B00
:101C9000530B5093B2044093B104D7CFE091AE04FC
:101CA000E4319CF5283E83E03807E8F2203A4FE023
:101CB000340758F58E2F0E2E000C990B019640918B
:101CC0005A014817190679F240915B014817190625
:101CD00051F240915C014817190629F2EF5FE09339
:101CE000AE040E2E000CFF0BE257FE4FE08154E0D5
:101CF000E59FF0011124E35FFE4FC901B0E0A0E0D1
:101D000080839183A283B383AECF293E334008F40E
:101D1000AACFEF5FE093AE04A6CF1F920F920FB64B
:101D20000F9211248F939F93AF93BF9316BC81E0C2
:101D300080937B058091FA059091FB05A091FC05AD
:101D4000B091FD054096A11DB11D8093FA059093B9
:101D5000FB05A093FC05B093FD05BF91AF919F914A
:101D60008F910F900FBE0F901F9018951F920F929A
:101D70000FB60F9211242F933F934F935F936F935E
:101D80007F938F939F93AF93BF93EF93FF93809134
:101D90008800909189008B3C9F4A91F480EC80935D
:101DA000800081E08093000180E293E090938900BD
:101DB0008093880080918100877F8093810022C07A
:101DC00080910001813019F480E48093800040917B
:101DD00000014131D0F5E42FF0E0CF01019762E03E
:101DE00070E00E940C200197F1F48091880090919E
:101DF0008900805E9C4F90938900809388004F5F9C
:101E000040930001FF91EF91BF91AF919F918F910E
:101E10007F916F915F914F913F912F910F900FBEE6
:101E20000F901F90189580918800909189003196AD
:101E3000F595E795EE0FFF1FEE0FFF1FE35FFE4FD7
:101E400020813181820F931FD6CF8BEC9FEA909334
:101E5000890080938800809181008860AECF1F92B6
:101E60000F920FB60F9211242F933F934F935F93CE
:101E70006F937F938F939F93AF93BF93EF93FF9352
:101E800082EA94E00E943206FF91EF91BF91AF91F8
:101E90009F918F917F916F915F914F913F912F9182
:101EA0000F900FBE0F901F901895E1E5F6E013829A
:101EB000128248EE53E060E070E04483558366830D
:101EC000778386EA91E09183808385EC90E0958723
:101ED000848784EC90E09787868780EC90E0918BF4
:101EE000808B81EC90E0938B828B82EC90E0958BE1
:101EF000848B86EC90E0978B868B118E128E138EDE
:101F0000148EAEEEB6E013961C921E9212971496A3
:101F10004D935D936D937C93179788EB91E01196A9
:101F20009C938E93EAEFF6E08AEC91E091838083B4
:101F30004FEF5FEFBA01468357836087718788E26E
:101F40008383B583A4830895CF93DF93CDB7DEB7A2
:101F5000C655D1090FB6F894DEBF0FBECDBF789439
:101F600084B5826084BD84B5816084BD85B582609E
:101F700085BD85B5816085BD80916E00816080934F
:101F80006E001092810080918100826080938100B8
:101F900080918100816080938100809180008160C8
:101FA000809380008091B10084608093B100809123
:101FB000B00081608093B00080917A00846080934B
:101FC0007A0080917A00826080937A0080917A0012
:101FD000816080937A0080917A00806880937A0093
:101FE0001092C100E0916106F091620612E0108348
:101FF000E0916106F09162061082E0915D06F09139
:102000005E061082E0915F06F091600680E18083B9
:1020100010926906E0916506F091660686E080837D
:10202000E0916306F0916406808180618083E09195
:102030006306F0916406808188608083E091630686
:10204000F0916406808180688083E0916306F0915E
:10205000640680818F7D808361E089E00E94F201C7
:1020600061E082E00E94C40161E083E00E94C4015B
:1020700060E080E00E94F20160E081E00E94F201F5
:1020800060E082E00E94F20160E083E00E94F201E1
:1020900060E086E00E94F20160E087E00E94F201C9
:1020A00060E088E00E94F20160E08BE00E94F201B3
:1020B00061E08BE00E94C40160E080E00E94C40106
:1020C00060E081E00E94C40161E082E00E94C401FE
:1020D00061E083E00E94C40161E08DE00E94F201B2
:1020E00061E083E00E94F20161E084E00E94F2017D
:1020F00061E08DE00E94C40160E083E00E94C401C1
:1021000060E084E00E94C40168EC70E080E090E050
:102110000E94480260E08DE00E94C40180E4809348
:1021200080008AEC809381001092820010936F00EF
:1021300080E293E0909389008093880010920006DB
:102140001092FF0510924E0610924D060E94A302B7
:102150008CE890E090932305809322058DE890E031
:10216000909321058093200568EC70E080E090E07A
:102170000E94480211E01093500608E200934F06B7
:102180008EEE96E00E943704811134C21092FC0654
:102190000093FD068EEE96E09093FF068093FE0678
:1021A0008FEF9FEFDC018093000790930107A093CE
:1021B0000207B0930307109205071092040790E0FE
:1021C00080E00E94D5098F3041F086E692E00E94BF
:1021D00034060E946F0A0E94960881E090E00E94F7
:1021E000D509682F70E090E080E00E94291D20E072
:1021F00030E048EC52E40E94021F60938A01709321
:102200008B0180938C0190938D0182E090E00E947D
:10221000D509682F70E090E080E00E94291D20E041
:1022200030E048EC52E40E94021F609386017093F4
:102230008701809388019093890181E080937101E7
:102240008093700180936F0185E090E00E94D50932
:1022500080FF03C09FEF9093710181FF03C09FEF48
:102260009093700182FF03C08FEF80936F0187E02E
:1022700090E00E94D509182F88E090E00E94D509CF
:1022800090E0982F8827810F911D90936E01809385
:102290006D0189E090E00E94D509182F8AE090E056
:1022A0000E94D509682F70E0762F6627610F711D97
:1022B000072E000C880B990B0E942B1D20E030E0AC
:1022C00040E251E40E94021F60937A0170937B0107
:1022D00080937C0190937D018BE090E00E94D50972
:1022E000182F8CE090E00E94D509682F70E0762FBF
:1022F0006627610F711D072E000C880B990B0E9439
:102300002B1D20E030E040E251E40E94021F609368
:1023100076017093770180937801909379018DE035
:1023200090E00E94D509182F8EE090E00E94D50918
:10233000682F70E0762F6627610F711D072E000C45
:10234000880B990B0E942B1D20E030E040E251E405
:102350000E94021F60937201709373018093740155
:102360009093750180E190E00E94D509182F81E1DA
:1023700090E00E94D50990E0982F8827810F911D49
:10238000909368018093670182E190E00E94D509F3
:10239000182F83E190E00E94D50990E0982F8827BC
:1023A000810F911D909362018093610184E190E01F
:1023B0000E94D509182F85E190E00E94D50990E090
:1023C000982F8827810F911D90936A01809369014E
:1023D00086E190E00E94D509182F87E190E00E94E5
:1023E000D50990E0982F8827810F911D90936C015B
:1023F00080936B0188E190E00E94D509182F89E154
:1024000090E00E94D50990E0982F8827810F911DB8
:1024100090936401809363018AE190E00E94D50962
:10242000182F8BE190E00E94D50990E0982F882723
:10243000810F911D90936601809365018CE190E07E
:102440000E94D509182F8DE190E00E94D50990E0F7
:10245000982F8827810F911D90935E0180935D01D5
:102460008EE190E00E94D509182F8FE190E00E9444
:10247000D50990E0982F8827810F911D90936001D6
:1024800080935F0180E290E00E94D50980935A0119
:1024900081E290E00E94D50980935B0182E290E0A6
:1024A0000E94D50980935C0183E290E00E94D509E7
:1024B0008093590184E290E00E94D50980938B05B6
:1024C0000E946F0A61E084E00E94C40164EF71E041
:1024D00080E090E00E9448020E945E0581E08093C7
:1024E0009B018093500582E084BD85E085BD83E03B
:1024F00080936E0080E888BD87BD61E083E00E9424
:10250000C4018E010F5F1F4F332433948AE0282EBD
:10251000E9EBF0E08491E5EAF0E0E490E1E9F0E055
:10252000F490F1107BC08091FE05882309F48AC0E5
:102530008091F905811118C08091FA059091FB05F1
:10254000A091FC05B091FD058D3D9540A105B1051B
:1025500058F081E09091F805911180E08093F805A2
:1025600030929B013092F90581E596E00E94EC00E3
:10257000892B09F42AC2E090F705E11006C084E631
:10258000A2E9B5E01D928A95E9F780919105813025
:1025900011F00C942A1B81E596E00E94CA00FF24EA
:1025A000F394FE0CF092F705EE2DF0E0EE56FA4FA4
:1025B0008083BEE0FB1253C080919E05833409F0F6
:1025C0004EC080919F05883409F049C0A2E9B5E06A
:1025D00080E0ED918F5FEE3334F40E2E000CFF0B94
:1025E000E25AFE4F80838D30A1F789E892E00E9485
:1025F0003406E7C11093500619E210934F0610926B
:102600004E0610924D068EEE96E00E943704811120
:10261000D6CD1092FC061093FD06BCCD81110E9410
:102620009B01EF2DF0E0EE0FFF1FE458FF4FA59147
:10263000B4918C91E82209F476CF1092F9051092AA
:10264000FE0592CF30929B011092FA051092FB0585
:102650001092FC051092FD053092FE0569CF62EAEA
:1026600072E0C8010E94E109C8010E94AF05E82E8E
:10267000C8010E94D709EE2009F4F6C4E4E0EF1582
:1026800008F04AC0E2E9F5E08F2D90E0BC012FEFA1
:102690003FEF419150E0A8E0FA2ED901A4273695EA
:1026A0002795A0FF04C0A8E02A27A4E83A2756955A
:1026B0004795FA94F110F1CF6150710964307105BA
:1026C00041F7209530953093900520938F058257E0
:1026D0009A4FFC018081918190938E0580938D05A6
:1026E00020918D0530918E0580918F0590919005F8
:1026F00028173907B1F085EA92E00E943406A0E07D
:10270000B0E0AB2B09F404CF0E94F800882309F451
:10271000FBCE0E940000F8CE1092900510928F051B
:10272000DFCF8DEA92E00E9434068CE2D8011D9240
:102730008A95E9F72091F7052450330BF12C50E0EE
:1027400040E08F2D90E082179307FCF48E569A4F4D
:10275000FC0180818C3221F44F5F5F4FF394F1CF05
:10276000FA01EE0FFF1FE00FF11FA081B1812A9E39
:10277000B0012B9E700D1124082E000C990BC097F0
:10278000860F971F91838083E9CF69817A81072E15
:10279000000C880B990B0E942B1D20E030E048ECC8
:1027A00052E40E94021F60938A0170938B01809310
:1027B0008C0190938D016B817C81072E000C880B1E
:1027C000990B0E942B1D20E030E048EC52E40E945F
:1027D000021F609386017093870180938801909314
:1027E00089016D817E81072E000C880B990B0E9458
:1027F0002B1D20E030E048EC52E40E94021F609361
:1028000082017093830180938401909385016F818D
:102810007885072E000C880B990B0E942B1D20E059
:1028200030E048EC52E40E94021F60937E017093F6
:102830007F01809380019093810169857A85072EBD
:10284000000C880B990B0E942B1D20E030E040E229
:1028500051E40E94021F60937A0170937B01809380
:102860007C0190937D016B857C85072E000C880B85
:10287000990B0E942B1D20E030E040E251E40E94C1
:10288000021F609376017093770180937801909393
:1028900079016D857E85072E000C880B990B0E94AF
:1028A0002B1D20E030E040E251E40E94021F6093C3
:1028B00072017093730180937401909375018F85F9
:1028C00080938C05309271013092700182FDC8C3F3
:1028D00030926F0181FF03C09FEF9093700180FFE2
:1028E00003C08FEF8093710189899A898059914043
:1028F000880F991F90936E0180936D018B899C893D
:1029000080599140880F991F90936C0180936B01BF
:102910008D899E8980599140880F991F90936A01F3
:10292000809369018F89988D80599140880F991FF4
:102930009093680180936701898D9A8D80599140A9
:10294000880F991F90936601809365018B8D9C8DF4
:1029500080599140880F991F90936401809363017F
:102960008D8D9E8D80599140880F991F90936201A3
:10297000809361018F8D98A180599140880F991F94
:102980009093600180935F0189A19AA18059914041
:10299000880F991F90935E0180935D018BA18093B6
:1029A0005A018DA180935B018FA180935C0189A561
:1029B000809359018BA580938B050E945E050E9430
:1029C00096081092F7051092910580917B05813051
:1029D00009F095CE8091F805811191CE61E575E001
:1029E0008AEF96E00E94AE0780916D0590916E058A
:1029F000A0916F05B091700523968CAF9DAFAEAFDF
:102A0000BFAF23978093510190935201A09353013C
:102A1000B0935401C0906505D0906605E0906705BD
:102A2000F09068054090690550906A0560906B05CC
:102A300070906C054092550150925601609257017A
:102A40007092580180919B01813001F510929B0199
:102A5000409286055092870560928805709289059C
:102A6000C0928205D0928305E0928405F09285059C
:102A700023968CAD9DADAEADBFAD239780937E0503
:102A800090937F05A0938005B09381058091860582
:102A900090918705A0918805B09189052B968CAF00
:102AA0009DAFAEAFBFAF2B9780917E0590917F0514
:102AB000A0918005B09181052F968CAF9DAFAEAFF0
:102AC000BFAF2F97209182053091830540918405F7
:102AD00050918505C701B6010E94951E20E030E0A7
:102AE00044E353E40E94961E27966CAF7DAF8EAFF1
:102AF0009FAF279720E030E044EB53E40E94021F91
:102B00000E94AA1F63966CAF7DAF8EAF9FAF639795
:102B100020E030E044E353E4C701B6010E94961E72
:102B20006B017C0120E030E044EB53E40E94021F83
:102B30000E94AA1F20E030E044EB53E40E948A1D6B
:102B40009B01AC01C701B6010E94951E20E030E058
:102B500044E353E40E94951E60934D0170934E012F
:102B600080934F019093500180915005882309F480
:102B70001CC2C0908A01D0908B01E0908C01F09033
:102B80008D01A701960160E070E080E89FE30E945C
:102B9000951E4B015C012091090130910A01409181
:102BA0000B0150910C010E948A1D67966CAF7DAF9E
:102BB0008EAF9FAF67972B962CAD3DAD4EAD5FAD01
:102BC0002B97C301B2010E94951EA70196010E9496
:102BD0008A1D9B01AC0167966CAD7DAD8EAD9FAD3E
:102BE00067970E94961E2B013C014092490150922A
:102BF0004A0160924B0170924C014092090150923F
:102C00000A0160920B0170920C0120910501309134
:102C100006014091070150910801C501B4010E94CD
:102C20008A1D4B015C012F962CAD3DAD4EAD5FADC5
:102C30002F9723966CAD7DAD8EAD9FAD23970E94EF
:102C4000951EA70196010E948A1D9B01AC01C5013A
:102C5000B4010E94961E23966CAF7DAF8EAF9FAFDE
:102C600023976093450170934601809347019093A9
:102C70004801DC01CB018093050190930601A093EC
:102C80000701B0930801C0908601D0908701E090C1
:102C90008801F090890120E030E044EB53E4639632
:102CA0006CAD7DAD8EAD9FAD63970E948A1D9B017B
:102CB000AC0127966CAD7DAD8EAD9FAD27970E9480
:102CC000951E20E030E044E353E40E94951EA701E6
:102CD00096010E948A1D4B015C01A701960160E0EC
:102CE00070E080E89FE30E94951E209101013091E1
:102CF000020140910301509104010E948A1D9B0131
:102D0000AC01C501B4010E94961E6B017C01C0920A
:102D10004101D0924201E0924301F0924401C092FD
:102D20000101D0920201E0920301F092040160914E
:102D30006F01062E000C770B880B990B0E942B1D40
:102D4000A70196010E948A1D20917601309177019A
:102D500040917801509179010E948A1D6B017C019C
:102D600060916D0170916E01072E000C880B990B1C
:102D70000E942B1D9B01AC01C701B6010E94961E4B
:102D80004B015C0160916B0170916C01072E000C8E
:102D9000880B990B0E942B1D6B017C019B01AC01E0
:102DA000B401C5010E940220181614F464017501D3
:102DB0006091690170916A01072E000C880B990BD4
:102DC0000E942B1D4B015C019601A7010E9402206D
:102DD000181614F064017501A0905A0194E0A99EA0
:102DE00050011124D501A35FBE4F5D01B601C7019B
:102DF0000E94741FF50160837183828393836091C5
:102E00007101062E000C770B880B990B0E942B1D6D
:102E1000A30192010E948A1D20917A0130917B01C9
:102E200040917C0150917D010E948A1D6B017C01C3
:102E30006091670170916801072E000C880B990B57
:102E40000E942B1D9B01AC01C701B6010E94961E7A
:102E50004B017C016091650170916601072E000CA9
:102E6000880B990B0E942B1D5B016C019B01AC012F
:102E7000B401C7010E940220181614F4540167011E
:102E80006091630170916401072E000C880B990B0F
:102E90000E942B1D4B017C019501A6010E9402207E
:102EA000181614F054016701E0905B01F4E0EF9E06
:102EB00070011124C701835F9E4F7C01B501C601DB
:102EC0000E94741FD7016D937D938D939C931397EC
:102ED00060917001062E000C770B880B990B0E94F5
:102EE0002B1D23962CAD3DAD4EAD5FAD23970E94BB
:102EF0008A1D2091720130917301409174015091AB
:102F000075010E948A1D6B017C01609161017091C5
:102F10006201072E000C880B990B0E942B1D9B0150
:102F2000AC01C701B6010E94961E4B017C01609165
:102F30005F0170916001072E000C880B990B0E94B5
:102F40002B1D5B016C019B01AC01B401C7010E9408
:102F50000220181614F45401670160915D0170910C
:102F60005E01072E000C880B990B0E942B1D4B0154
:102F70007C019501A6010E940220181614F054014C
:102F80006701E0905C01B4E0EB9E70011124F70151
:102F9000E35FFE4F7F01B501C6010E94741FD70198
:102FA0006D937D938D939C931397809178058330D7
:102FB00009F030C480917705833009F02BC48091EB
:102FC0007605833009F026C480917505833009F0B9
:102FD00021C480918A05882309F41CC468E275E045
:102FE0008AEF96E00E942A0A80913805909139056F
:102FF000A0913A05B0913B05809324059093250557
:10300000A0932605B093270585E390E00E947D07F5
:10301000282F30E0A90174E0559547957A95E1F79E
:10302000437035952795359527952370382F337044
:10303000E0900407F0900507F7013197EA30F105B9
:1030400008F0CCC4EA5DF74E0C946120341BFB1CE5
:10305000CB1BF81CC91BCE1BEE1CC91BF81CCB1BC1
:103060009FEF90936F0136CC65ED72E0C8010E942E
:10307000E109C8010E94AF05E82EC8010E94D709E6
:10308000EE2009F473C00E94EA050E94EA050E943E
:10309000EA058BED92E00E94340687EF92E00E94F1
:1030A00032066DEC7CEC8CEC9EE30E94700784E0B1
:1030B00093E00E94320660918A0170918B018091A9
:1030C0008C0190918D010E94700783E193E00E9432
:1030D00032066091860170918701809188019091FC
:1030E00089010E9470078DE193E00E943206809171
:1030F0006D0190916E010E9485068EE293E00E9420
:10310000320680916701909168010E94850680E4F3
:1031100093E00E94320680916101909162010E94C9
:10312000850682E593E00E94320660917A017091F3
:103130007B0180917C0190917D010E9470078FE559
:1031400093E00E9432066091760170917701809140
:103150007801909179010E9470078BE693E00E94BC
:103160003206809159010E9447062BCC68E773E034
:10317000C8010E94E109C8010E94AF05E82EC801FC
:103180000E94D709EE2059F087E793E00E943206AB
:103190006DEC7CEC8CEC9EE30E94700712CC6EE729
:1031A00073E0C8010E94E109C8010E94AF05E82E42
:1031B000C8010E94D709EE2039F08DE793E00E9404
:1031C000320681E092E013CA63E873E0C8010E940E
:1031D000E109C8010E94AF05E82EC8010E94D70985
:1031E000EE2039F087E893E00E94340630929B018C
:1031F000E8CB6CE973E0C8010E94E109C8010E94B4
:10320000AF05E82EC8010E94D709EE2039F080EA08
:1032100093E00E94340630928A05D3CB62ED73E0CE
:10322000C8010E94E109C8010E94AF05E82EC8014B
:103230000E94D709EE20E9F086ED93E00E94340663
:1032400010928605109287051092880510928905C4
:1032500010928205109283051092840510928505C4
:1032600010927E0510927F051092800510928105C4
:10327000A8CB6BEE73E0C8010E94E109C8010E946F
:10328000AF05E82EC8010E94D709EE2039F080EF83
:1032900093E00E94340630927D0593CB6CE074E09D
:1032A000C8010E94E109C8010E94AF05E82EC801CB
:1032B0000E94D709EE2039F081E194E00E943406A3
:1032C00010927D057ECB60E374E0C8010E94E109A5
:1032D000C8010E94AF05E82E811131C065E374E09A
:1032E000CE018D960E94E109CE018D960E94AF0518
:1032F000E82E811120C06AE374E0CE01C3960E94DB
:10330000E109CE01C3960E94AF05E82E81110FC0DE
:103310006FE374E0CE01C9960E94E109CE01C9961F
:103320000E94AF05E82ECE01C9960E94D709CE01B2
:10333000C3960E94D709CE018D960E94D709C80175
:103340000E94D709EE2019F010927C053ACB64E474
:1033500074E0C8010E94E109C8010E94AF05E82E8F
:10336000C8010E94D709EE2019F030927C0529CBC4
:1033700069E474E0C8010E94E109C8010E94AF0538
:10338000E82EC8010E94D709E11019CB6EE474E061
:10339000C8010E94E109C8010E94AF05E82EC801DA
:1033A0000E94D709EE2009F450C183E594E00E9401
:1033B000320620E030E048EC52E460918A017091DE
:1033C0008B0180918C0190918D010E948A1D0E9439
:1033D0006D0789E594E00E94320620E030E048EC79
:1033E00052E46091860170918701809188019091EB
:1033F00089010E948A1D0E946D0789E594E00E9460
:10340000320620E030E048EC52E460918201709195
:10341000830180918401909185010E948A1D0E9400
:103420006D0789E594E00E94320620E030E048EC28
:1034300052E460917E0170917F01809180019091B2
:1034400081010E948A1D0E946D0789E594E00E9417
:10345000320620E030E040E251E460917A01709160
:103460007B0180917C0190917D010E948A1D0E94C8
:103470006D0789E594E00E94320620E030E040E2EA
:1034800051E460917601709177018091780190917B
:1034900079010E948A1D0E946D0789E594E00E94CF
:1034A000320620E030E040E251E460917201709118
:1034B000730180917401909175010E948A1D0E9490
:1034C0006D0789E594E00E94320680918C050E9488
:1034D000400689E594E00E94320680916D0190914A
:1034E0006E0197FD01969595879580579E4F0E9496
:1034F0007F0689E594E00E94320680916B019091ED
:103500006C0197FD01969595879580579E4F0E9477
:103510007F0689E594E00E943206809169019091CE
:103520006A0197FD01969595879580579E4F0E9459
:103530007F0689E594E00E943206809167019091B0
:10354000680197FD01969595879580579E4F0E943B
:103550007F0689E594E00E94320680916501909192
:10356000660197FD01969595879580579E4F0E941D
:103570007F0689E594E00E94320680916301909174
:10358000640197FD01969595879580579E4F0E94FF
:103590007F0689E594E00E94320680916101909156
:1035A000620197FD01969595879580579E4F0E94E1
:1035B0007F0689E594E00E94320680915F01909138
:1035C000600197FD01969595879580579E4F0E94C3
:1035D0007F0689E594E00E94320680915D0190911A
:1035E0005E0197FD01969595879580579E4F0E94A5
:1035F0007F0689E594E00E94320680915A010E947C
:10360000400689E594E00E94320680915B010E94A9
:10361000400689E594E00E94320680915C010E9498
:10362000400689E594E00E943206809159010E948B
:10363000400689E594E00E94320680918B050E9445
:1036400047068BE594E00C94F712F4E6FF1508F0BA
:10365000BCC9B7C981E596E00E94CA00849709F009
:10366000B4C930929105B1C9233009F099C090E0F6
:1036700080E00E944C0569E170E080E090E00E94EB
:10368000480286E590E00E947D07D82E85E590E00F
:103690000E947D079D2D9A83898388E590E00E9492
:1036A0007D07D82E87E590E00E947D079D2D9C83A5
:1036B0008B838AE590E00E947D07D82E89E590E013
:1036C0000E947D079D2D9E838D838CE590E00E9456
:1036D0007D07D82E8BE590E00E947D079D2D988771
:1036E0008F838EE590E00E947D07D82E8DE590E0D7
:1036F0000E947D079D2D9A87898780E690E00E9431
:103700007D07D82E8FE590E00E947D079D2D9C8738
:103710008B8782E690E00E947D07D82E81E690E0BC
:103720000E947D079D2D9E878D8784E690E00E94F4
:103730007D07D82E83E690E00E947D079D2D988B13
:103740008F8786E690E00E947D07D82E85E690E080
:103750000E947D079D2D9A8B898B88E690E00E94C0
:103760007D07D82E87E690E00E947D079D2D9C8BDB
:103770008B8B8AE690E00E947D07D82E89E690E048
:103780000E947D079D2D9E8B8D8BC7010E944C054D
:1037900007C0233029F4433019F469CF3330D9F30B
:1037A00084E794E00E94340654E2C52E55E0D52EFD
:1037B00064E6E62EF12CF601B1906F01C7010E947C
:1037C000481EB81621F06B2DC7010E94501EFFEF56
:1037D000EF1AFF0A28E6E216F10469F7CE01019616
:1037E0006C01D601BD906D01C7010E94481EB8163C
:1037F00021F06B2DC7010E94501EBFEFEB1AFB0A90
:10380000EEE7EE16F10469F787E994E00E943406CA
:1038100010928A058091790590917A059C012F5F1D
:103820003F4F30937A05209379050A970CF4D2C064
:1038300080917C05813009F0C9C085E390E00E9449
:103840007D07982F9295969596959370909378050D
:10385000282F30E0A90194E0559547959A95E1F716
:1038600043704093770535952795359527952370B7
:10387000209376058370809375058FE994E00E940C
:10388000320680917D05882309F4B9C06091550105
:103890007091560180915701909158010E946D07D7
:1038A00089E594E00E9432066091510170915201C5
:1038B00080915301909154010E946D0789E594E035
:1038C0000E94320660914D0170914E0180914F012E
:1038D000909150010E946D0789E594E00E943206A4
:1038E000E0915A0124E0E29FF0011124E35FFE4FD2
:1038F000608171818281938122E030E040E050E07C
:103900000E944220CA01B90160577E4F8F4F9F4FDE
:103910000E94530689E594E00E943206E0915B0123
:1039200084E0E89FF0011124E35FFE4F6081718124
:103930008281938122E030E040E050E00E9442200A
:10394000CA01B90160577E4F8F4F9F4F0E945306A7
:1039500089E594E00E943206E0915C0194E0E99FE1
:10396000F0011124E35FFE4F6081718182819381B8
:1039700022E030E040E050E00E944220CA01B9015C
:1039800060577E4F8F4F9F4F0E94530689E594E00A
:103990000E943206809178050E94400689E594E0F5
:1039A0000E943206809177050E94400689E594E0E6
:1039B0000E943206809176050E94400689E594E0D7
:1039C0000E943206809175050E94470610927A0582
:1039D0001092790510927B050C947F138295869541
:1039E00086958370833009F0DBCE433009F0D8CE62
:1039F000233009F0D5CE333009F0D2CE38CE6091E5
:103A0000490170914A0180914B0190914C010E94B3
:103A10006D0789E594E00E9432066091450170913E
:103A2000460180914701909148010E946D0789E508
:103A300094E00E94320660914101709142018091B0
:103A400043019091440146CF0E94661D08F481E035
:103A50000895E89409C097FB3EF490958095709581
:103A600061957F4F8F4F9F4F9923A9F0F92F96E9CA
:103A7000BB279395F695879577956795B795F1113F
:103A8000F8CFFAF4BB0F11F460FF1BC06F5F7F4FDC
:103A90008F4F9F4F16C0882311F096E911C07723EE
:103AA00021F09EE8872F762F05C0662371F096E8F7
:103AB000862F70E060E02AF09A95660F771F881FC6
:103AC000DAF7880F9695879597F90895990F00086A
:103AD000550FAA0BE0E8FEEF16161706E807F907E0
:103AE000C0F012161306E407F50798F0621B730B7B
:103AF000840B950B39F40A2661F0232B242B252BFC
:103B000021F408950A2609F4A140A6958FEF811D9E
:103B1000811D08950E949D1D0C940E1E0E94001E82
:103B200038F00E94071E20F0952311F00C94F71D29
:103B30000C94FD1D11240C94421E0E941F1E70F354
:103B4000959FC1F3950F50E0551F629FF001729F42
:103B5000BB27F00DB11D639FAA27F00DB11DAA1F51
:103B6000649F6627B00DA11D661F829F2227B00D9E
:103B7000A11D621F739FB00DA11D621F839FA00D29
:103B8000611D221F749F3327A00D611D231F849F79
:103B9000600D211D822F762F6A2F11249F575040D0
:103BA0009AF0F1F088234AF0EE0FFF1FBB1F661F4B
:103BB000771F881F91505040A9F79E3F510580F014
:103BC0000C94F71D0C94421E5F3FE4F3983ED4F32F
:103BD000869577956795B795F795E7959F5FC1F7B8
:103BE000FE2B880F911D9695879597F9089597F963
:103BF0009F6780E870E060E008959FEF80EC089593
:103C000000240A94161617061806090608950024BB
:103C10000A9412161306140605060895092E039435
:103C2000000C11F4882352F0BB0F40F4BF2B11F4A9
:103C300060FF04C06F5F7F4F8F4F9F4F089557FD08
:103C40009058440F551F59F05F3F71F04795880F0A
:103C500097FB991F61F09F3F79F0879508951216A1
:103C600013061406551FF2CF4695F1DF08C016164D
:103C700017061806991FF1CF8695710561050894FE
:103C80000895E894BB2766277727CB0197F9089515
:103C9000F999FECF92BD81BDF89A992780B5089514
:103CA000262FF999FECF1FBA92BD81BD20BD0FB658
:103CB000F894FA9AF99A0FBE019608952F923F92BE
:103CC0004F925F926F927F928F929F92AF92BF922C
:103CD000CF92DF92EF92FF920F931F93CF93DF93D8
:103CE000CDB7DEB7CA1BDB0B0FB6F894DEBF0FBE35
:103CF000CDBF09942A88398848885F846E847D8482
:103D00008C849B84AA84B984C884DF80EE80FD8083
:103D10000C811B81AA81B981CE0FD11D0FB6F894F9
:103D2000DEBF0FBECDBFED0108955058BB27AA27B7
:103D30000E94AD1E0C940E1E0E94001E38F00E94C0
:103D4000071E20F039F49F3F19F426F40C94FD1D52
:103D50000EF4E095E7FB0C94F71DE92F0E941F1E5F
:103D600058F3BA17620773078407950720F079F4B0
:103D7000A6F50C94411E0EF4E0950B2EBA2FA02D43
:103D80000B01B90190010C01CA01A0011124FF2708
:103D9000591B99F0593F50F4503E68F11A16F04003
:103DA000A22F232F342F4427585FF3CF4695379502
:103DB0002795A795F0405395C9F77EF41F16BA0BC7
:103DC000620B730B840BBAF09150A1F0FF0FBB1F75
:103DD000661F771F881FC2F70EC0BA0F621F731FBE
:103DE000841F48F4879577956795B795F7959E3F1B
:103DF00008F0B0CF9395880F08F09927EE0F9795AC
:103E0000879508950E94161F0C940E1E0E94071E8F
:103E100058F00E94001E40F029F45F3F29F00C94F6
:103E2000F71D51110C94421E0C94FD1D0E941F1E83
:103E300068F39923B1F3552391F3951B550BBB27D9
:103E4000AA2762177307840738F09F5F5F4F220F1E
:103E5000331F441FAA1FA9F335D00E2E3AF0E0E815
:103E600032D091505040E695001CCAF72BD0FE2F5F
:103E700029D0660F771F881FBB1F261737074807F3
:103E8000AB07B0E809F0BB0B802DBF01FF279358AB
:103E90005F4F3AF09E3F510578F00C94F71D0C945B
:103EA000421E5F3FE4F3983ED4F38695779567957D
:103EB000B795F7959F5FC9F7880F911D96958795E0
:103EC00097F90895E1E0660F771F881FBB1F6217FF
:103ED00073078407BA0720F0621B730B840BBA0BBD
:103EE000EE1F88F7E09508950E947B1F6894B1113A
:103EF0000C94421E08950E94271E88F09F5798F048
:103F0000B92F9927B751B0F0E1F0660F771F881FDE
:103F1000991F1AF0BA95C9F714C0B13091F00E94F8
:103F2000411EB1E008950C94411E672F782F882719
:103F3000B85F39F0B93FCCF3869577956795B3951F
:103F4000D9F73EF490958095709561957F4F8F4F8E
:103F50009F4F08950E94EA1F90F09F3748F49111F7
:103F600016F00C94421E60E070E080E89FEB08952C
:103F700026F41B16611D711D811D0C94C11F0C942C
:103F8000DC1F882371F4772321F09850872B762F3C
:103F900007C0662311F499270DC09051862B70E05D
:103FA00060E02AF09A95660F771F881FDAF7880F6E
:103FB0009695879597F908959F3F31F0915020F499
:103FC000879577956795B795880F911D96958795F5
:103FD00097F908950E94271EA0F0BEE7B91788F44C
:103FE000BB279F3860F41616B11D672F782F8827DE
:103FF000985FF7CF869577956795B11D939596391C
:10400000C8F308950E94661D08F48FEF08950E947A
:10401000661D880B990B089597FB072E16F40094E4
:1040200007D077FD09D00E94672007FC05D03EF439
:10403000909581959F4F0895709561957F4F089554
:10404000A1E21A2EAA1BBB1BFD010DC0AA1FBB1F9C
:10405000EE1FFF1FA217B307E407F50720F0A21B0E
:10406000B30BE40BF50B661F771F881F991F1A947B
:1040700069F760957095809590959B01AC01BD01A5
:10408000CF010895052E97FB1EF400940E9459203D
:1040900057FD07D00E94202007FC03D04EF40C945B
:1040A000592050954095309521953F4F4F4F5F4F88
:1040B000089590958095709561957F4F8F4F9F4F94
:1040C0000895EE0FFF1F0590F491E02D0994AA1BAF
:1040D000BB1B51E107C0AA1FBB1FA617B70710F0F3
:1040E000A61BB70B881F991F5A95A9F78095909525
:1040F000BC01CD0108950F931F93CF93DF938230BE
:10410000910510F482E090E0E0910807F091090732
:1041100030E020E0B0E0A0E0309799F421153105BF
:1041200009F44AC0281B390B24303105D8F58A819F
:104130009B816115710589F1FB0193838283FE01E7
:1041400011C0408151810281138148175907E0F065
:104150004817590799F4109761F012960C9312972B
:1041600013961C933296CF01DF91CF911F910F913F
:1041700008950093080710930907F4CF211531051E
:1041800051F04217530738F0A901DB019A01BD0134
:10419000DF01F801C1CFEF01F9CF909309078093B8
:1041A0000807CDCFFE01E20FF31F819391932250B8
:1041B000310939832883D7CF20910607309107072B
:1041C000232B41F420919E0130919F0130930707EA
:1041D0002093060720919C0130919D012115310506
:1041E00041F42DB73EB74091A0015091A101241B8D
:1041F000350BE0910607F0910707E217F307A0F4EB
:104200002E1B3F0B2817390778F0AC014E5F5F4F2C
:104210002417350748F04E0F5F1F50930707409350
:104220000607819391939FCFF0E0E0E09CCFCF937E
:10423000DF930097E9F0FC01329713821282A0917C
:104240000807B0910907ED0130E020E01097A1F4D4
:1042500020813181820F931F20910607309107073B
:104260002817390709F061C0F0930707E0930607A4
:10427000DF91CF910895EA01CE17DF07E8F54A8173
:104280005B819E0141155105B1F7E901FB83EA838A
:1042900049915991C40FD51FEC17FD0761F4808136
:1042A00091810296840F951FE90199838883828109
:1042B00093819B838A83F0E0E0E012968D919C913C
:1042C00013970097B9F52D913C911197CD01029666
:1042D000820F931F2091060730910707281739078F
:1042E00039F6309751F51092090710920807B093EC
:1042F0000707A0930607BCCFD383C28340815181B7
:10430000840F951FC817D90761F44E5F5F4F8881EE
:104310009981480F591F518340838A819B819383E0
:1043200082832115310509F0B0CFF0930907E0939E
:1043300008079ECFFD01DC01C0CF13821282D7CFC8
:10434000B0E0A0E0E6EAF1E20C94601E8C01009778
:1043500051F4CB010E947B208C01C801CDB7DEB7A0
:10436000E0E10C947C1EFC01E60FF71F9C0122503B
:104370003109E217F30708F49DC0D901CD91DC9112
:104380001197C617D70798F0C530D10530F3CE0185
:1043900004978617970708F3C61BD70B2297C1937C
:1043A000D1936D937C93CF010E941721D6CF5B01EF
:1043B000AC1ABD0A4C018C0E9D1EA0910807B0914D
:1043C0000907512C412CF12CE12C109731F58091EB
:1043D0000607909107078815990509F05CC04616F5
:1043E000570608F058C080919C0190919D0100975C
:1043F00041F48DB79EB74091A0015091A101841B5B
:10440000950BE817F90708F055C0F0930707E093FC
:104410000607F90171836083A0CF8D919C9111975C
:1044200012966C90129713967C901397A815B90565
:1044300059F56C0142E0C40ED11CCA14DB0420F112
:10444000AC014A195B09DA011296159780F0628275
:10445000738251834083D9016D937C93E114F104FD
:1044600071F0D7011396FC93EE93129776CF2296B4
:104470008C0F9D1FF90191838083F301EFCFF0939F
:104480000907E093080769CF4816590608F42C017C
:104490007D01D3019ACFCB010E947B207C01009744
:1044A00049F0AE01B8010E945D22C8010E941721A7
:1044B000870153CF10E000E050CFFB01DC0102C0C8
:1044C00001900D9241505040D8F70895FB01DC0156
:1044D00001900D920020E1F70895FB01DC014150AD
:1044E000504048F001900D920020C9F701C01D9284
:0C44F00041505040E0F70895F894FFCFD1
:1044FC00010000B4420000B4420000B44234080091
:10450C0000340800003408000034080000340800AF
:10451C00003408000034080000340800003408009F
:10452C00003408000034080000340800003408008F
:10453C00000000B4420000B4420000B4420000B4D9
:10454C00420000B4420000B44224080706800CB0BC
:10455C00049808800CB0049808800CB0049808FFEC
:10456C00FFFF00008841000088410000884148E1BD
:10457C007A3F48E17A3F0000403F0000403F000195
:10458C0002030405060708090A0B0C0100000A07C0
:10459C008000000000002E018E00BB007B01EC00AF
:1045AC00CA00DE00000000000804DB035B05B10359
:1045BC00D403C103B203000000007A02DF097B02BE
:1045CC00AE072A0A0D0A006E616E00696E66006FF6
:1045DC0076660048543A2053657474696E6773208C
:1045EC00736176656420746F20454550524F4D21A0
:1045FC0000424E4F303535004E6F20424E4F303515
:10460C00352064657465637465642E2E2E204368B2
:10461C0065636B20796F757220776972696E6700BC
:10462C004E6F2043616C6962726174696F6E2044D5
:10463C006174612053746F72656400526573746F9A
:10464C007265642053617665642043616C696272A3
:10465C006174696F6E004E657720626F61726420C1
:10466C002D20736176696E672064656661756C7464
:10467C002076616C75657321004368616E6E656CA4
:10468C00206D617070696E6720726563656976650F
:10469C00640048450024435243455252002443527F
:1046AC00434F4B0D0A48543A2053657474696E6736
:1046BC00732072656365697665642066726F6D2020
:1046CC00475549210044454255470048543A202D4E
:1046DC002D2D2D2D2D20446562756720696E666F1A
:1046EC002D2D2D2D2D2D0046572056657273696F7B
:1046FC006E3A200074696C74526F6C6C4265746114
:10470C003A200070616E426574613A2000736572E4
:10471C00766F50616E43656E7465723A20007365F6
:10472C0072766F54696C7443656E7465723A2000CE
:10473C00736572766F526F6C6C43656E7465723A0A
:10474C00200074696C74466163746F723A20007057
:10475C00616E466163746F723A20006178697352BE
:10476C00656D61703A20002456455253002448412F
:10477C005244005253540048543A205265736574A5
:10478C0074696E672063656E7465720053544F00D4
:10479C0048543A2043616C6962726174696F6E208F
:1047AC007361766564207768656E20616C6C20732C
:1047BC00656E736F7273206174206D6178696D75AD
:1047CC006D00434C520048543A20436C6561726949
:1047DC006E67204F666673657473004752415700CD
:1047EC0048543A2053686F77696E6720526177207E
:1047FC0053656E736F72204461746100474F464677
:10480C000048543A2053686F77696E67204F66668C
:10481C007365742053656E736F722044617461000C
:10482C00434D4145004341454E004752454E0050D3
:10483C004C454E00504C5354005341564500475381
:10484C004554002453455424002C0048543A20531A
:10485C00657474696E67732073656E7420746F2051
:10486C004755490053746F72696E672063616C69B8
:10487C0062726174696F6E206461746120746F2060
:10488C00454550524F4D002443414C534156002452
:0E489C00470054696D65722031204F5646006A
:00000001FF
